:100000000C945C000C9479000C9479000C947900A9
:100010000C9479000C9479000C9479000C9479007C
:100020000C9479000C9479000C9479000C9479006C
:100030000C9479000C9479000C9479000C9479005C
:100040000C942E010C9479000C9479000C94790096
:100050000C9479000C9479000C9479000C9479003C
:100060000C9479000C947900000000080002010053
:100070000003040700000000000000000000000072
:10008000250028002B0000000000240027002A0083
:10009000040404040404040402020202020203032E
:1000A0000303030301020408102040800102040836
:1000B000102001020408102011241FBECFEFD8E049
:1000C000DEBFCDBF12E0A0E0B1E0ECE5F4E002C09D
:1000D00005900D92AA3BB107D9F723E0AAEBB2E055
:1000E00001C01D92A534B207E1F70E9478010C947B
:1000F0002C020C94000090E0FC01EC55FF4F249181
:10010000FC01E057FF4F8491882399F090E0880F1D
:10011000991FFC01EA57FF4FA591B491FC01E458E7
:10012000FF4F859194918FB7F894EC91E22BEC936B
:100130008FBF089590E0FC01E859FF4F2491FC0126
:10014000EC55FF4F3491FC01E057FF4FE491EE2353
:1001500009F43CC0222339F1233091F038F42130E6
:10016000A9F0223001F584B58F7D12C0273091F0BF
:100170002830A1F02430B9F4809180008F7D03C035
:10018000809180008F77809380000DC084B58F7739
:1001900084BD09C08091B0008F7703C08091B0000A
:1001A0008F7D8093B000F0E0EE0FFF1FE458FF4F0B
:1001B000A591B4919FB7F894611104C08C913095CA
:1001C000382302C0EC913E2B3C939FBF08950F93C0
:1001D0001F93CF93DF938091BA029091BB02FC01F1
:1001E000E257FD4FE081EE0FFF0BE050FE4FC08164
:1001F000D1816CEB72E020E030E001E010E0FB0127
:1002000040E050E0DA01A20FB31FAC0FBD1FAC916C
:10021000AA2319F01182108202C0118300834F5F5C
:100220005F4F32964830510569F7605F7F4F285F16
:100230003F4F2034310519F701968A3091052CF48F
:100240009093BB028093BA0204C01092BB0210923A
:10025000BA02DF91CF911F910F9108951F920F92D3
:100260000FB60F9211242F933F938F939F93AF93C9
:10027000BF938091410390914203A0914303B091B9
:1002800044033091400323E0230F2D3720F40196DF
:10029000A11DB11D05C026E8230F0296A11DB11DA9
:1002A000209340038093410390934203A093430320
:1002B000B093440380913C0390913D03A0913E0391
:1002C000B0913F030196A11DB11D80933C03909313
:1002D0003D03A0933E03B0933F03BF91AF919F9125
:1002E0008F913F912F910F900FBE0F901F901895F7
:1002F000789484B5826084BD84B5816084BD85B501
:10030000826085BD85B5816085BD80916E0081600C
:1003100080936E00109281008091810082608093B2
:1003200081008091810081608093810080918000B4
:100330008160809380008091B10084608093B100DF
:100340008091B00081608093B00080917A008460D9
:1003500080937A0080917A00826080937A00809105
:100360007A00816080937A0080917A00806880931F
:100370007A001092C10009EA12E0C9E9D2E0F880DF
:1003800022968F2D0E947B00F80180810E5F1F4F07
:100390000E947B0061E08F2D0E949A00F2E0C93A32
:1003A000DF0769F70E94E70020E0622E20E0722E4E
:1003B00038EE832E33E0932ECCEBD2E099EAE92E8F
:1003C00092E0F92EF7015080F2E0EF0EF11C61E0AF
:1003D000852D0E949A0089E9C82E82E0D82E00E07F
:1003E00010E0FE01E00FF11FA080B180F601408017
:1003F000F2E0CF0ED11C6A2D842D0E949A00AB280A
:1004000021F461E0842D0E949A000E5F1F4F00319D
:10041000110539F760E0852D0E949A00609683E00F
:10042000CC33D80779F680910001909101010097B3
:1004300031F00197909301018093000106C09092E2
:100440000101809200010E94E7006114710409F427
:0C045000B3CF0E940000B0CFF894FFCFA3
:10045C00E8030000000000000000000000000000A5
:10046C000000000000000000000000000000000080
:10047C000000000000000000000000000000000070
:10048C000000000000000000000000000000000060
:10049C000000000101000001010001010101010146
:1004AC000101010101010101010100010101010131
:1004BC000100000001010101000000000001010029
:1004CC000000000000000000000000000000000020
:1004DC00000000000000000000000001010000010D
:1004EC0001000101010101010101010101010101F1
:1004FC0001010001010101010100000001010101E4
:10050C0000000000000101000000000000000000DD
:10051C0000000000000000000000000000000000CF
:10052C0000000001010000010100010101010101B5
:10053C0001010101010101010101000101010101A0
:10054C000100000001010101000000000001010098
:10055C00000000000000000000000000000000008F
:10056C00000000000000000000000000000101007D
:10057C000000000001010101000000000101010167
:10058C00000000000001010000000000000000005D
:10059C00000000000000000000000000000000004F
:1005AC00000000000000000000000000000000003F
:1005BC00000000000001010000000000000101002B
:1005CC00000000000000000000000000000000001F
:1005DC00000042020202C2018201420102014641B4
:1005EC0042434445444342410006000B000A0003C9
:1005FC0000110004000800090002000700130005A8
:0A060C00000D0012000C00100000A9
:107E0000112484B714BE81FFF0D085E080938100F7
:107E100082E08093C00088E18093C10086E0809377
:107E2000C20080E18093C4008EE0C9D0259A86E02C
:107E300020E33CEF91E0309385002093840096BBD3
:107E4000B09BFECF1D9AA8958150A9F7CC24DD24C4
:107E500088248394B5E0AB2EA1E19A2EF3E0BF2EE7
:107E6000A2D0813461F49FD0082FAFD0023811F036
:107E7000013811F484E001C083E08DD089C08234E0
:107E800011F484E103C0853419F485E0A6D080C0E4
:107E9000853579F488D0E82EFF2485D0082F10E0AE
:107EA000102F00270E291F29000F111F8ED06801E7
:107EB0006FC0863521F484E090D080E0DECF843638
:107EC00009F040C070D06FD0082F6DD080E0C81688
:107ED00080E7D80618F4F601B7BEE895C0E0D1E017
:107EE00062D089930C17E1F7F0E0CF16F0E7DF06D8
:107EF00018F0F601B7BEE89568D007B600FCFDCFD4
:107F0000A601A0E0B1E02C9130E011968C91119780
:107F100090E0982F8827822B932B1296FA010C0160
:107F200087BEE89511244E5F5F4FF1E0A038BF0790
:107F300051F7F601A7BEE89507B600FCFDCF97BE46
:107F4000E89526C08437B1F42ED02DD0F82E2BD052
:107F50003CD0F601EF2C8F010F5F1F4F84911BD097
:107F6000EA94F801C1F70894C11CD11CFA94CF0C13
:107F7000D11C0EC0853739F428D08EE10CD085E9AC
:107F80000AD08FE07ACF813511F488E018D01DD067
:107F900080E101D065CF982F8091C00085FFFCCF94
:107FA0009093C60008958091C00087FFFCCF809118
:107FB000C00084FD01C0A8958091C6000895E0E648
:107FC000F0E098E1908380830895EDDF803219F02E
:107FD00088E0F5DFFFCF84E1DECF1F93182FE3DFCA
:107FE0001150E9F7F2DF1F91089580E0E8DFEE27F6
:047FF000FF270994CA
:027FFE00040479
:0400000300007E007B
:00000001FF
